{
  "contractName": "EFIR",
  "abi": [
    {
      "inputs": [
        {
          "internalType": "address",
          "name": "_owner",
          "type": "address"
        }
      ],
      "stateMutability": "nonpayable",
      "type": "constructor"
    },
    {
      "inputs": [],
      "name": "owner",
      "outputs": [
        {
          "internalType": "address",
          "name": "",
          "type": "address"
        }
      ],
      "stateMutability": "view",
      "type": "function",
      "constant": true
    },
    {
      "inputs": [
        {
          "internalType": "string",
          "name": "_documentHash",
          "type": "string"
        },
        {
          "internalType": "string",
          "name": "_policeStationName",
          "type": "string"
        },
        {
          "internalType": "string",
          "name": "_complainantName",
          "type": "string"
        },
        {
          "internalType": "string",
          "name": "_filerName",
          "type": "string"
        }
      ],
      "name": "storeDocument",
      "outputs": [],
      "stateMutability": "nonpayable",
      "type": "function"
    },
    {
      "inputs": [
        {
          "internalType": "uint256",
          "name": "_documentId",
          "type": "uint256"
        }
      ],
      "name": "retrieveDocument",
      "outputs": [
        {
          "internalType": "string",
          "name": "",
          "type": "string"
        },
        {
          "internalType": "string",
          "name": "",
          "type": "string"
        },
        {
          "internalType": "string",
          "name": "",
          "type": "string"
        },
        {
          "internalType": "string",
          "name": "",
          "type": "string"
        }
      ],
      "stateMutability": "view",
      "type": "function",
      "constant": true
    },
    {
      "inputs": [],
      "name": "getContractAddress",
      "outputs": [
        {
          "internalType": "address",
          "name": "",
          "type": "address"
        }
      ],
      "stateMutability": "view",
      "type": "function",
      "constant": true
    }
  ],
  "bytecode": "0x60a0604052600060015534801561001557600080fd5b50604051610dc6380380610dc6833981810160405281019061003791906100d4565b8073ffffffffffffffffffffffffffffffffffffffff1660808173ffffffffffffffffffffffffffffffffffffffff168152505050610101565b600080fd5b600073ffffffffffffffffffffffffffffffffffffffff82169050919050565b60006100a182610076565b9050919050565b6100b181610096565b81146100bc57600080fd5b50565b6000815190506100ce816100a8565b92915050565b6000602082840312156100ea576100e9610071565b5b60006100f8848285016100bf565b91505092915050565b608051610ca46101226000396000818160e6015261010a0152610ca46000f3fe608060405234801561001057600080fd5b506004361061004c5760003560e01c806332a2c5d0146100515780638da5cb5b1461006f578063c7f753401461008d578063d18e1a31146100a9575b600080fd5b6100596100dc565b604051610066919061051e565b60405180910390f35b6100776100e4565b604051610084919061051e565b60405180910390f35b6100a760048036038101906100a29190610693565b610108565b005b6100c360048036038101906100be91906107a0565b610244565b6040516100d3949392919061084c565b60405180910390f35b600030905090565b7f000000000000000000000000000000000000000000000000000000000000000081565b7f000000000000000000000000000000000000000000000000000000000000000073ffffffffffffffffffffffffffffffffffffffff163373ffffffffffffffffffffffffffffffffffffffff1614610196576040517f08c379a000000000000000000000000000000000000000000000000000000000815260040161018d906108f9565b60405180910390fd5b604051806080016040528085815260200184815260200183815260200182815250600080600154815260200190815260200160002060008201518160000190816101e09190610b25565b5060208201518160010190816101f69190610b25565b50604082015181600201908161020c9190610b25565b5060608201518160030190816102229190610b25565b509050506001600081548092919061023990610c26565b919050555050505050565b6060806060806000808681526020019081526020016000206000016000808781526020019081526020016000206001016000808881526020019081526020016000206002016000808981526020019081526020016000206003018380546102aa90610948565b80601f01602080910402602001604051908101604052809291908181526020018280546102d690610948565b80156103235780601f106102f857610100808354040283529160200191610323565b820191906000526020600020905b81548152906001019060200180831161030657829003601f168201915b5050505050935082805461033690610948565b80601f016020809104026020016040519081016040528092919081815260200182805461036290610948565b80156103af5780601f10610384576101008083540402835291602001916103af565b820191906000526020600020905b81548152906001019060200180831161039257829003601f168201915b505050505092508180546103c290610948565b80601f01602080910402602001604051908101604052809291908181526020018280546103ee90610948565b801561043b5780601f106104105761010080835404028352916020019161043b565b820191906000526020600020905b81548152906001019060200180831161041e57829003601f168201915b5050505050915080805461044e90610948565b80601f016020809104026020016040519081016040528092919081815260200182805461047a90610948565b80156104c75780601f1061049c576101008083540402835291602001916104c7565b820191906000526020600020905b8154815290600101906020018083116104aa57829003601f168201915b5050505050905093509350935093509193509193565b600073ffffffffffffffffffffffffffffffffffffffff82169050919050565b6000610508826104dd565b9050919050565b610518816104fd565b82525050565b6000602082019050610533600083018461050f565b92915050565b6000604051905090565b600080fd5b600080fd5b600080fd5b600080fd5b6000601f19601f8301169050919050565b7f4e487b7100000000000000000000000000000000000000000000000000000000600052604160045260246000fd5b6105a082610557565b810181811067ffffffffffffffff821117156105bf576105be610568565b5b80604052505050565b60006105d2610539565b90506105de8282610597565b919050565b600067ffffffffffffffff8211156105fe576105fd610568565b5b61060782610557565b9050602081019050919050565b82818337600083830152505050565b6000610636610631846105e3565b6105c8565b90508281526020810184848401111561065257610651610552565b5b61065d848285610614565b509392505050565b600082601f83011261067a5761067961054d565b5b813561068a848260208601610623565b91505092915050565b600080600080608085870312156106ad576106ac610543565b5b600085013567ffffffffffffffff8111156106cb576106ca610548565b5b6106d787828801610665565b945050602085013567ffffffffffffffff8111156106f8576106f7610548565b5b61070487828801610665565b935050604085013567ffffffffffffffff81111561072557610724610548565b5b61073187828801610665565b925050606085013567ffffffffffffffff81111561075257610751610548565b5b61075e87828801610665565b91505092959194509250565b6000819050919050565b61077d8161076a565b811461078857600080fd5b50565b60008135905061079a81610774565b92915050565b6000602082840312156107b6576107b5610543565b5b60006107c48482850161078b565b91505092915050565b600081519050919050565b600082825260208201905092915050565b60005b838110156108075780820151818401526020810190506107ec565b60008484015250505050565b600061081e826107cd565b61082881856107d8565b93506108388185602086016107e9565b61084181610557565b840191505092915050565b600060808201905081810360008301526108668187610813565b9050818103602083015261087a8186610813565b9050818103604083015261088e8185610813565b905081810360608301526108a28184610813565b905095945050505050565b7f6e6f7420746865206f776e65722063616e742063616c6c000000000000000000600082015250565b60006108e36017836107d8565b91506108ee826108ad565b602082019050919050565b60006020820190508181036000830152610912816108d6565b9050919050565b7f4e487b7100000000000000000000000000000000000000000000000000000000600052602260045260246000fd5b6000600282049050600182168061096057607f821691505b60208210810361097357610972610919565b5b50919050565b60008190508160005260206000209050919050565b60006020601f8301049050919050565b600082821b905092915050565b6000600883026109db7fffffffffffffffffffffffffffffffffffffffffffffffffffffffffffffffff8261099e565b6109e5868361099e565b95508019841693508086168417925050509392505050565b6000819050919050565b6000610a22610a1d610a188461076a565b6109fd565b61076a565b9050919050565b6000819050919050565b610a3c83610a07565b610a50610a4882610a29565b8484546109ab565b825550505050565b600090565b610a65610a58565b610a70818484610a33565b505050565b5b81811015610a9457610a89600082610a5d565b600181019050610a76565b5050565b601f821115610ad957610aaa81610979565b610ab38461098e565b81016020851015610ac2578190505b610ad6610ace8561098e565b830182610a75565b50505b505050565b600082821c905092915050565b6000610afc60001984600802610ade565b1980831691505092915050565b6000610b158383610aeb565b9150826002028217905092915050565b610b2e826107cd565b67ffffffffffffffff811115610b4757610b46610568565b5b610b518254610948565b610b5c828285610a98565b600060209050601f831160018114610b8f5760008415610b7d578287015190505b610b878582610b09565b865550610bef565b601f198416610b9d86610979565b60005b82811015610bc557848901518255600182019150602085019450602081019050610ba0565b86831015610be25784890151610bde601f891682610aeb565b8355505b6001600288020188555050505b505050505050565b7f4e487b7100000000000000000000000000000000000000000000000000000000600052601160045260246000fd5b6000610c318261076a565b91507fffffffffffffffffffffffffffffffffffffffffffffffffffffffffffffffff8203610c6357610c62610bf7565b5b60018201905091905056fea2646970667358221220a75fe08b6d93d1c80d8b8189876942abf85885083079b6ece600acf175c6067c64736f6c63430008130033",
  "immutableReferences": {
    "3": [
      {
        "length": 32,
        "start": 230
      },
      {
        "length": 32,
        "start": 266
      }
    ]
  },
  "source": "//SPDX-License-Identifier: MIT\npragma solidity ^0.8.0;\n\ncontract EFIR {\n    address public immutable owner;\n\n    struct Document {\n        string documentHash;\n        string policeStationName;\n        string complainantName;\n        string filerName;\n    }\n\n    mapping(uint256 => Document) private documents;\n    uint256 private documentCounter = 0;\n\n    constructor(address _owner) {\n        owner = _owner;\n    }\n\n    function storeDocument(\n        string memory _documentHash,\n        string memory _policeStationName,\n        string memory _complainantName,\n        string memory _filerName\n    ) public {\n        require(msg.sender == owner, \"not the owner cant call\");\n        documents[documentCounter] = Document(\n            _documentHash,\n            _policeStationName,\n            _complainantName,\n            _filerName\n        );\n        documentCounter++;\n    }\n\n    function retrieveDocument(\n        uint256 _documentId\n    )\n        public\n        view\n        returns (string memory, string memory, string memory, string memory)\n    {\n        return (\n            documents[_documentId].documentHash,\n            documents[_documentId].policeStationName,\n            documents[_documentId].complainantName,\n            documents[_documentId].filerName\n        );\n    }\n\n    function getContractAddress() public view returns (address) {\n        return address(this);\n    }\n}\n",
  "sourcePath": "/home/bhavya/Work/EFIR/system/frontend/ethereum/contracts/EFIR.sol",
  "compiler": {
    "name": "solc",
    "version": "0.8.19+commit.7dd6d404.Emscripten.clang"
  },
  "schemaVersion": "3.4.13",
  "updatedAt": "2023-04-01T22:06:27.636Z",
  "networkType": "ethereum",
  "devdoc": {
    "kind": "dev",
    "methods": {},
    "version": 1
  },
  "userdoc": {
    "kind": "user",
    "methods": {},
    "version": 1
  }
}